:020000040000FA
:0400000061EF00F0BC
:100018007480D8CF01F0E8CF02F0E0CF03F0D9CF59
:1000280004F0DACF05F09EAA1CEF00F01EEF00F0F6
:1000380055EF00F0AECF06F0ABA225EF00F027EFAA
:1000480000F02CEF00F0AB9800F0AB882CEF00F03C
:100058007E0E0618D8A433EF00F035EF00F047EF16
:1000680000F072C070F073C071F0000E736E000E75
:10007800726E000E7224D96E010E7320DA6E06C0FD
:10008800DFFF55EF00F0724A732A000E7224D96E12
:10009800010E7320DA6E06C0DFFF55EF00F055EF52
:1000A80000F005C0DAFF04C0D9FF03C0E0FF02C0BA
:0E00B800E8FF01C0D8FF74901000DEEF18F0D2
:100600000042726F616463617374206D6F64652072
:100610002000526571756573742053616D706C654F
:1006200073200053657474696E6720582D426565A8
:1006300020746F00537769746368203D202564201F
:10064000202000582D426565204E6574776F726BCF
:10065000200044656D6F2E2E212100444800444C3B
:050660000049520000FA
:100666003150800B3E6E31503124406E30AE3EEF3D
:1006760003F040EF03F043EF03F0408043EF03F055
:100686004050D8B449EF03F04BEF03F062EF03F0AC
:100696004028D8A451EF03F053EF03F05DEF03F0C9
:1006A600000E2E6E000E2F6E000E306E000E316E96
:1006B6005DEF03F0308E000E316E6CEF03F0000E2E
:1006C6002E6E000E2F6E000E306E000E316E6CEF29
:1006D60003F03550800B3F6E3E503F18D8B476EF8E
:1006E60003F078EF03F07BEF03F03E8C7BEF03F033
:1006F600355035243F6E34AE83EF03F085EF03F0BB
:1007060088EF03F03F8088EF03F03F50D8B48EEFB8
:1007160003F090EF03F0A7EF03F03F28D8A496EF7D
:1007260003F098EF03F0A2EF03F0000E326E000E16
:10073600336E000E346E000E356EA2EF03F0348E6B
:10074600000E356EB1EF03F0000E326E000E336E02
:10075600000E346E000E356EB1EF03F040503F5C74
:10076600D8B0B8EF03F0BAEF03F0E5EF03F03EAC14
:10077600BFEF03F0C1EF03F0C5EF03F0800E3E1AA2
:10078600C5EF03F040C041F03FC040F041C03FF02C
:100796002EC041F032C02EF041C032F02FC041F0E1
:1007A60033C02FF041C033F030C041F034C030F0D8
:1007B60041C034F031C041F035C031F041C035F0B0
:1007C600E5EF03F0000E416E4050366E376A361E76
:1007D600371E364A372A3F50386E396A3650382621
:1007E6003750392239BE01EF04F0395009E11A0EAB
:1007F600385CD8A001EF04F003EF04F040EF04F0FA
:100806002E502F1030103110D8A40CEF04F00FEF3B
:1008160004F0010E10EF04F0000E416E000E2E6E75
:10082600000E2F6E000E306E000E316E3FC040F08F
:100836004BEF04F040EF04F041A024EF04F026EF64
:1008460004F02CEF04F0D89041300109416E30EFEE
:1008560004F0D890413230EF04F02EA035EF04F0CA
:1008660037EF04F03AEF04F0418E3AEF04F03134FA
:10087600313230322F322E32402A3F50405CD8A0DF
:1008860047EF04F049EF04F01FEF04F04BEF04F0DC
:100896003EBC50EF04F052EF04F09AEF04F04050E3
:1008A600D8A458EF04F05AEF04F066EF04F0000EF7
:1008B6002E6E000E2F6E000E306E000E316EF4EFAF
:1008C60005F0F4EF05F032502E2633502F22345027
:1008D60030223550312231A073EF04F075EF04F069
:1008E6004AEF05F041A07AEF04F07CEF04F082EFC6
:1008F60004F0D89041300109416E86EF04F0D8909B
:10090600413286EF04F02EA08BEF04F08DEF04F059
:1009160090EF04F0418E90EF04F0313431323032F2
:100926002F322E32402A4AEF05F04AEF05F03250B8
:100936002E5C33502F58345030583150800A366E62
:100946003550800A3658D8B0ABEF04F0ADEF04F05E
:10095600EBEF04F02EC036F02FC037F030C038F081
:1009660031C039F0361E371E381E391E362A000EA3
:10097600372238223922325036243A6E3350372005
:100986003B6E345038203C6E355039203D6EFF0E9C
:100996003A242E6EFF0E3B202F6EFF0E3C20306E4B
:1009A600FF0E3D20316E800E3E1A416C4150D8A498
:1009B600DFEF04F0E1EF04F0F3EF04F0010E2E2672
:1009C600000E2F2230223122F3EF04F0F3EF04F071
:1009D60032502E5E33502F5A3450305A3550315AD9
:1009E6002E502F1030103110D8A4FCEF04F0FEEF7B
:1009F60004F03FEF05F04150D8A404EF05F006EFF0
:100A060005F03FEF05F0000E2E6E000E2F6E000E65
:100A1600306E000E316EF4EF05F0F4EF05F03FEFA7
:100A260005F0D8902E362F363036313641AE1EEFD1
:100A360005F020EF05F023EF05F02E8023EF05F0FB
:100A460041A028EF05F02AEF05F02EEF05F0D8803B
:100A5600413632EF05F0D890413632EF05F040507E
:100A6600D8B438EF05F03AEF05F03FEF05F0400651
:100A76003FEF05F03FEF05F030AE44EF05F046EFEF
:100A860005F014EF05F04AEF05F04AEF05F0000E09
:100A96003F6E41AE51EF05F053EF05F06FEF05F0F5
:100AA60041C036F07F0E3616D8B45CEF05F05EEF27
:100AB60005F062EF05F0010E3F6E6FEF05F02EA018
:100AC60067EF05F069EF05F06FEF05F0010E3F6E79
:100AD6006FEF05F06FEF05F03F50D8B475EF05F0F6
:100AE60077EF05F0A8EF05F0010E2E26000E2F2257
:100AF6003022312231A082EF05F084EF05F0A8EF15
:100B060005F02EC036F02FC037F030C038F031C0B7
:100B160039F03934393238323732363236C02EF07F
:100B260037C02FF038C030F039C031F04028D8B483
:100B36009FEF05F0A1EF05F0A8EF05F0402AA8EF1A
:100B460005F0A8EF05F0A8EF05F04028D8B4AEEF01
:100B560005F0B0EF05F0BAEF05F04050D8A4B6EFB7
:100B660005F0B8EF05F0D0EF05F0BAEF05F0000E8E
:100B76002E6E000E2F6E000E306E000E316E40503F
:100B8600D8A4C8EF05F0CAEF05F0D0EF05F0000EC7
:100B96003E6ED0EF05F0D0EF05F040A0D5EF05F0A2
:100BA600D7EF05F0DAEF05F0308EDDEF05F0309E79
:100BB600DDEF05F0D8904030316E3EAEE5EF05F042
:100BC600E7EF05F0EAEF05F0318EEAEF05F02EC00B
:100BD6002EF02FC02FF030C030F031C031F0F4EFDE
:100BE60005F012001850800B256E185018242C6E34
:100BF60017AE00EF06F002EF06F005EF06F02C80C8
:100C060005EF06F02C50D8B40BEF06F00DEF06F00A
:100C160024EF06F02C28D8A413EF06F015EF06F003
:100C26001FEF06F0000E156E000E166E000E176E04
:100C3600000E186E1FEF06F0178E000E186E2EEFC0
:100C460006F0000E156E000E166E000E176E000EE4
:100C5600186E2EEF06F01C50800B251A1C501C2413
:100C66002D6E1BAE39EF06F03BEF06F03EEF06F0B9
:100C76002D803EEF06F02D50D8B444EF06F046EF37
:100C860006F05DEF06F02D28D8A44CEF06F04EEFE7
:100C960006F058EF06F0000E196E000E1A6E000EE2
:100CA6001B6E000E1C6E58EF06F01B8E000E1C6E9F
:100CB60067EF06F0000E196E000E1A6E000E1B6E20
:100CC600000E1C6E67EF06F019501A101B101C1050
:100CD600D8A470EF06F072EF06F08CEF06F0000E67
:100CE600156E000E166E000E176E000E186E800E34
:100CF60017127F0E18122550181215C015F016C0BF
:100D060016F017C017F018C018F004EF08F004EF3B
:100D160008F02C50D8A492EF06F094EF06F0A8EF56
:100D260006F0000E156E000E166E000E176E000E03
:100D3600186E15C015F016C016F017C017F018C0BB
:100D460018F004EF08F004EF08F02D501D6E1E6A2F
:100D56001D1E1E1E1D4A1E2A2C501F6E206A1D5067
:100D66001F261E5020227F0E1F24266E000E2020D6
:100D7600276E15C021F016C022F017C023F018C048
:100D860024F0000E156E000E166E000E176E000E85
:100D9600186E000E286E000E296E000E2A6E000ECA
:100DA6002B6E000E2D6E14EF07F02D50D8B4DEEF2B
:100DB60006F0E0EF06F0F9EF06F0D890213622367D
:100DC60023362436D89015361636173618362BAEF7
:100DD600EFEF06F0F1EF06F0F2EF06F01580D8908F
:100DE600283629362A362B36F9EF06F01950215CBB
:100DF6001A5022581B5023581C502458D8A006EFCE
:100E060007F008EF07F013EF07F02B8C1950215E5F
:100E16001A50225A1B50235A1C50245A13EF07F01B
:100E26002D2A190E2D641AEF07F01CEF07F0D8EFE4
:100E360006F01EEF07F02150221023102410D8B41C
:100E460027EF07F029EF07F045EF07F0288045EF79
:100E560007F045EF07F0D8901536163617361836D0
:100E66002BAE38EF07F03AEF07F03BEF07F01580AF
:100E7600D890283629362A362B362606D8A02706B5
:100E860045EF07F017AE4AEF07F04CEF07F02EEFED
:100E960007F04EEF07F0000E2D6E2BAE55EF07F064
:100EA60057EF07F07FEF07F0FF0E28141D6EFF0EB9
:100EB60029141E6EFF0E2A141F6E7F0E2B14206E31
:100EC6001D501E101F102010D8B46CEF07F06EEFE7
:100ED60007F072EF07F0010E2D6E7FEF07F015A0F9
:100EE60077EF07F079EF07F07FEF07F0010E2D6E31
:100EF6007FEF07F07FEF07F02D50D8B485EF07F0AE
:100F060087EF07F0AFEF07F0010E1526000E162249
:100F16001722182218A092EF07F094EF07F0AFEF10
:100F260007F015C01DF016C01EF017C01FF018C040
:100F360020F0203420321F321E321D321DC015F023
:100F46001EC016F01FC017F020C018F0264A272A28
:100F5600AFEF07F0AFEF07F027BEBAEF07F0275065
:100F660008E12628D8A0BAEF07F0BCEF07F0C9EFD2
:100F760007F0000E276E2668000E156E000E166E20
:100F8600000E176E000E186EC9EF07F027BED6EFDB
:100F960007F0275006E12604D8B0D4EF07F0D6EFC5
:100FA60007F0E6EF07F0000E276E000E266E000E25
:100FB600156E000E166E000E176E000E186E000EE1
:100FC600256EE6EF07F026C02CF02CA0EDEF07F01B
:100FD600EFEF07F0F2EF07F0178EF5EF07F0179E29
:100FE600F5EF07F0D8902C30186E2550181215C062
:100FF60015F016C016F017C017F018C018F004EF59
:1010060008F012001604D8A40BEF08F00DEF08F054
:1010160048EF08F06704D8A013EF08F015EF08F0C2
:101026001BEF08F0000E226E130E216E4CEF08F037
:10103600675008E16604D8A023EF08F025EF08F012
:101046002BEF08F0000E226E120E216E4CEF08F008
:101056006750661008E16504D8A034EF08F036EF53
:1010660008F03CEF08F0000E226E110E216E4CEFD8
:1010760008F0000E226E100E216E4CEF08F04CEFB9
:1010860008F04CEF08F04CEF08F0000E226E0F0E41
:10109600216E000E246E180E236E180E1D6E1DBED8
:1010A60059EF08F057EF08F05DEF08F083EF08F00E
:1010B60083EF08F01D500AC017F00BC018F00CC0E3
:1010C60019F00DC01AF0E82A6EEF08F0D8901A321F
:1010D600193218321732E82E69EF08F02350172418
:1010E600236E24501820246E1D50F80F1D6E1DBE51
:1010F60081EF08F07FEF08F05DEF08F083EF08F06E
:10110600180E1E6E1EBE8CEF08F08AEF08F090EFE8
:1011160008F0B6EF08F0B6EF08F01E500EC017F054
:101126000FC018F010C019F011C01AF0E82AA1EF8C
:1011360008F0D8901A32193218321732E82E9CEF7E
:1011460008F023501724236E24501820246E1E50B6
:10115600F80F1E6E1EBEB4EF08F0B2EF08F090EF67
:1011660008F0B6EF08F014C0F6FF15C0F7FF080048
:10117600F55012C017F013C018F018C017F0186A0F
:101186001726000E1822010E1424196E000E1520C3
:101196001A6E19C0F6FF1AC0F7FF0800F550172699
:1011A600000E1822235017262450182212501726F4
:1011B60013501822020E1724236E000E1820246ED8
:1011C6001604D8A4E9EF08F0EBEF08F010EF09F0E9
:1011D60064C017F065C018F066C019F067C01AF051
:1011E600190EFBEF08F0D8901A321932183217325E
:1011F600E82EF6EF08F0665017266750182265505D
:101206001726665018222350172624501822645099
:101216001724236E65501820246E23C017F024C0AF
:1012260018F0171E181E174A182AFF0E1724236EC9
:10123600000E1820246E7E0E1BEC19F022501BECBB
:1012460019F021501BEC19F0170E1BEC19F0010ECA
:101256001BEC19F0180E1F6E1FBE36EF09F034EFA7
:1012660009F03AEF09F05DEF09F05DEF09F01F5064
:101276000AC017F00BC018F00CC019F00DC01AF018
:10128600E82A4BEF09F0D8901A3219321832173281
:10129600E82E46EF09F017501BEC19F01F50F80F17
:1012A6001F6E1FBE5BEF09F059EF09F03AEF09F028
:1012B6005DEF09F0180E206E20BE66EF09F064EFB0
:1012C60009F06AEF09F08DEF09F08DEF09F0205073
:1012D6000EC017F00FC018F010C019F011C01AF0A8
:1012E600E82A7BEF09F0D8901A32193218321732F1
:1012F600E82E76EF09F017501BEC19F02050F80F86
:10130600206E20BE8BEF09F089EF09F06AEF09F035
:101316008DEF09F013501BEC19F012501BEC19F06D
:10132600020E1BEC19F014C008F015C009F0BFEC52
:1013360018F0010E1B241B6E000E1C201C6E1604DA
:10134600D8A4A8EF09F0AAEF09F0E1EF09F0130E0F
:1013560021182210D8A4B2EF09F0B4EF09F0BFEFBC
:1013660009F067501BEC19F066501BEC19F065503C
:101376001BEC19F0BFEF09F0120E21182210D8A4A9
:10138600C7EF09F0C9EF09F0D1EF09F066501BEC81
:1013960019F065501BEC19F0D1EF09F0110E211868
:1013A6002210D8A4D9EF09F0DBEF09F0DEEF09F03F
:1013B60065501BEC19F064501BEC19F023501BEC24
:1013C60019F01200000E0001E56FA20EE66F130E73
:1013D600E76F000EE86FC20EE96FA90EEA6F890E7D
:1013E600EB6F410EEC6F720ED36E800E4C6E250EB7
:1013F6004D6E000E4E6E000E4F6E24EC16F09FECF6
:1014060018F0000E106E430E116E060E126E010ECF
:10141600DAEC17F0000E106E520E116E060E126EFA
:10142600020EDAEC17F0030E086EE80E076EDEEC1D
:1014360016F0F7EC18F0F28EF28C9D8A000E106E04
:10144600230E116E060E126E010EDAEC17F0000E68
:10145600106E010E116E060E126E020EDAEC17F009
:10146600949695929480948294948B968B94ABECFC
:1014760017F0F7EC18F0000E106E120E116E060E35
:10148600126E010EDAEC17F0E5C025F0E6C026F084
:10149600E7C027F0E8C028F0E9C029F0EAC02AF042
:1014A600EBC02BF0ECC02CF0FF0E2E6EFE0E2D6E58
:1014B600610E2F6E060E306E640E316E000E326EA9
:1014C600000E336E000E346E58EC18F0030E086EE4
:1014D600E80E076EDEEC16F0F7EC18F09E9A74EF45
:1014E6000AF066EC16F00001A151D8B47DEF0AF0BF
:1014F6007FEF0AF0B5EF0AF09451800A7F0FD8A06B
:1015060087EF0AF089EF0AF0B5EF0AF0CC0E5E6EAF
:10151600000E5F6E340E606E060E616E9251626E44
:10152600636A62BE63067CEC17F0000E106ECC0E8A
:10153600116E000E126E010EDAEC17F0CC0E076E6D
:10154600000E086E000E0A6E000E096E000E0C6E7E
:10155600190E0B6EC8EC11F0B5EF0AF0B5EF0AF0F4
:10156600B5EF0AF00001A051D8B4BCEF0AF0BEEF07
:101576000AF09BEF0BF081BFCCEF0AF0F40E805D12
:10158600050E8159D8B0CAEF0AF0CCEF0AF0FAEF8F
:101596000AF081BFD8EF0AF0840E805D030E8159F0
:1015A600D8A0D8EF0AF0DAEF0AF0FAEF0AF085BF12
:1015B600E8EF0AF0F40E845D050E8559D8B0E6EF23
:1015C6000AF0E8EF0AF0FAEF0AF085BFF4EF0AF046
:1015D600840E845D030E8559D8A0F4EF0AF0F6EF69
:1015E6000AF0FAEF0AF08C928B963EEF0BF081BF71
:1015F60008EF0BF08B0E805D020E8159D8B006EF16
:101606000BF008EF0BF01AEF0BF081BF14EF0BF0A5
:101616005E0E805D010E8159D8A014EF0BF016EF17
:101626000BF01AEF0BF08C828B963EEF0BF081BF1E
:1016360028EF0BF0815107E1C90E805DD8B026EF87
:101646000BF028EF0BF03EEF0BF081BF2DEF0BF008
:101656002FEF0BF03EEF0BF082A034EF0BF036EFDE
:101666000BF03EEF0BF08B868C923EEF0BF03EEFCD
:101676000BF03EEF0BF085BF4CEF0BF0F40E845DE4
:10168600050E8559D8B04AEF0BF04CEF0BF05EEF24
:101696000BF085BF58EF0BF0840E845D030E855961
:1016A600D8A058EF0BF05AEF0BF05EEF0BF09BEF64
:1016B6000BF09BEF0BF085BF6CEF0BF08B0E845D90
:1016C600020E8559D8B06AEF0BF06CEF0BF07EEF87
:1016D6000BF085BF78EF0BF05E0E845D010E855929
:1016E600D8A078EF0BF07AEF0BF07EEF0BF09BEFC4
:1016F6000BF09BEF0BF085BF8CEF0BF0855107E1EC
:10170600C90E845DD8B08AEF0BF08CEF0BF09BEF1F
:101716000BF085BF91EF0BF093EF0BF09BEF0BF007
:101726008C828B969BEF0BF09BEF0BF09BEF0BF0F5
:1017360082A2A0EF0BF0A2EF0BF0A5EF0BF08B84CB
:1017460074EF0AF08B9474EF0AF074EF0AF074EFFA
:101756000AF061EF00F0000E0001A06F000EA16F0D
:10176600010101510D6E0C6A02510C24146E000E1B
:101776000D20156E03C116F05EEF0DF0A4EC16F009
:101786000009D8B4C9EF0BF0CBEF0BF06FEF0DF0FB
:10179600C6EC15F00009D8A4D3EF0BF0D5EF0BF08B
:1017A600D9EF0BF06FEF0DF06FEF0DF00101105157
:1017B6000D6E0C6A11510C241A6E000E0D201B6E54
:1017C60012C119F013510D6E0C6A14510C24176EC8
:1017D600000E0D20186E1950D8B4F4EF0BF0F6EF8A
:1017E6000BF0FBEF0BF0010E0001A06FFBEF0BF00F
:1017F6001A501B10D8B402EF0CF004EF0CF007EFF0
:101806000CF0010E0001A16F000E1E6E0F0E1E647D
:101816000FEF0CF011EF0CF015EF0CF09EEF0CF043
:101826009EEF0CF01EC00CF01AC00DF01BC00EF09F
:101836000C2A21EF0CF0D8900E320D320C2E1EEF32
:101846000CF00DA029EF0CF02BEF0CF04DEF0CF087
:101856001EC00CF017C00DF018C00EF00C2A37EFA2
:101866000CF0D8900E320D320C2E34EF0CF00DA089
:101876003FEF0CF041EF0CF04DEF0CF01E50010D58
:10188600900EF324D96E000EF420DA6E010EDF6E90
:1018960093EF0CF01EC00CF01AC00DF01BC00EF03A
:1018A6000C2A59EF0CF0D8900E320D320C2E56EF52
:1018B6000CF00DA061EF0CF063EF0CF085EF0CF06F
:1018C6001EC00CF017C00DF018C00EF00C2A6FEFFA
:1018D6000CF0D8900E320D320C2E6CEF0CF00DB0D1
:1018E60077EF0CF079EF0CF085EF0CF01E50010D40
:1018F600900EF324D96E000EF420DA6E000EDF6E21
:1019060093EF0CF01E50010D900EF324D96E000ECD
:10191600F420DA6EFF0EDF6E93EF0CF093EF0CF00F
:101926001E2A0F0E1E649AEF0CF09CEF0CF015EFBA
:101936000CF09EEF0CF0000E1D6E000E1C6E070ED6
:101946001D64A8EF0CF0AAEF0CF0AEEF0CF06FEFF1
:101956000DF06FEF0DF01DC00CF019C00DF00C2A44
:10196600B7EF0CF0D8900D320C2EB5EF0CF00DA0A1
:10197600BFEF0CF0C1EF0CF03FEF0DF01A501B104B
:10198600D8B4C8EF0CF0CAEF0CF003EF0DF01C5002
:101996000C6E0D6AD8900C360D36150E0C26000E00
:1019A6000D22000E0C24D96E010E0D20DA6EDF50CA
:1019B6000E6E0E50106E0F6A1C50116E126AD89081
:1019C60011361236160E1126000E1222000E1124A2
:1019D600D96E010E1220DA6EDF50136E13500F26E9
:1019E600000E10221D50020D800EF324D96E000E3B
:1019F600F420DA6E0FC0DEFF10C0DDFF3CEF0DF005
:101A06001C500C6E0D6AD8900C360D36130E0C2633
:101A1600000E0D22000E0C24D96E010E0D20DA6E7A
:101A2600DF500E6E0E50106E0F6A1C50116E126A49
:101A3600D89011361236140E1126000E1222000E00
:101A46001124D96E010E1220DA6EDF50136E135078
:101A56000F26000E10221D50020D800EF324D96EA3
:101A6600000EF420DA6E0FC0DEFF10C0DDFF3CEF83
:101A76000DF01C2A4DEF0DF01D50020D800EF324C3
:101A8600D96E000EF420DA6EFF0EDE6EFF0EDD6EEE
:101A96004DEF0DF01D2A070E1D6454EF0DF056EFA5
:101AA6000DF0AEEF0CF06FEF0DF06FEF0DF06FEF86
:101AB6000DF06FEF0DF016500C6E0D6A0D50000A0A
:101AC600D8B468EF0DF06FEF0DF00C50920AD8B451
:101AD600C1EF0BF06FEF0DF0120024C03CF025C0F3
:101AE6003DF026C03EF027C03FF028C040F029C098
:101AF60041F02AC042F02BC043F043BE85EF0DF003
:101B060088EF0DF0010E89EF0DF0000E3A6E3B6A7C
:101B16003A503B10D8B492EF0DF094EF0DF0A6EFCB
:101B26000DF0431E421E411E401E3F1E3E1E3D1E20
:101B36003C6C000E3D223E223F22402241224222A0
:101B46004322A6EF0DF06DBEABEF0DF0ADEF0DF03D
:101B5600B0EF0DF06E92B0EF0DF06DBEBDEF0DF073
:101B66006D5006E16C04D8B0BBEF0DF0BDEF0DF083
:101B7600C3EF0DF0000E376E010E366EC7EF0DF097
:101B86006CC036F06DC037F06AC038F06BC039F003
:101B96003A503B10D8A4D2EF0DF0D4EF0DF0DDEFA4
:101BA6000DF06EA4D9EF0DF0DBEF0DF0E2EF0DF0C6
:101BB600DDEF0DF03806D8A03906E2EF0DF0000E85
:101BC600456E1F0E446EA20E4424D96E000E4520AB
:101BD600DA6E000EDF6E6EEF0EF04406D8A04506F4
:101BE600A20E4424D96E000E4520DA6E3CC007F0E2
:101BF6003DC008F03EC009F03FC00AF040C00BF0FF
:101C060041C00CF042C00DF043C00EF00A0E0F6E3C
:101C1600000E106E000E116E000E126E000E136E88
:101C2600000E146E000E156E000E166E7FEC13F08D
:101C360007C02CF008C02DF009C02EF00AC02FF006
:101C46000BC030F00CC031F00DC032F00EC033F0D6
:101C56002CC019F02EC01AF07DEC18F01950300F78
:101C6600DF6E3606D8A037063806D8A039063CC03F
:101C760007F03DC008F03EC009F03FC00AF040C082
:101C86000BF041C00CF042C00DF043C00EF00A0E3E
:101C96000F6E000E106E000E116E000E126E000E0C
:101CA600136E000E146E000E156E000E166EA7EC67
:101CB60012F007C03CF008C03DF009C03EF00AC073
:101CC6003FF00BC040F00CC041F00DC042F00EC01A
:101CD60043F06EEF0EF045BE79EF0EF0455008E189
:101CE6004404D8A079EF0EF07BEF0EF0B1EF0EF0C2
:101CF6003C503D103E103F10401041104210431022
:101D0600D8A488EF0EF08AEF0EF0F0EF0DF037BE94
:101D160097EF0EF0375006E13604D8B095EF0EF087
:101D260097EF0EF0F0EF0DF039BEA2EF0EF039503E
:101D360008E13804D8A0A2EF0EF0A4EF0EF0B1EF40
:101D46000EF06EB2A9EF0EF0ABEF0EF0F0EF0DF065
:101D5600B1EF0EF0B1EF0EF0B1EF0EF03A503B10CE
:101D6600D8A4B8EF0EF0BAEF0EF0C3EF0EF06EA4E3
:101D7600BFEF0EF0C1EF0EF0E5EF0EF0C3EF0EF081
:101D86004406D8A045063A503B10D8A4CDEF0EF035
:101D9600CFEF0EF0D5EF0EF0000E356E2B0E346E33
:101DA600DBEF0EF0000E356E2D0E346EDBEF0EF00F
:101DB600A20E4424D96E000E4520DA6E34C0DFFF31
:101DC600E5EF0EF022C017F023C018F0A20E44244F
:101DD600196E000E45201A6E38C01BF039C01CF073
:101DE6005DEC15F017C022F018C023F0FBEF0EF0E3
:101DF60012000C04D8A402EF0FF004EF0FF03FEF2F
:101E06000FF06704D8A00AEF0FF00CEF0FF012EFF7
:101E16000FF0000E146E080E136E45EF0FF06750AC
:101E260008E16604D8A01AEF0FF01CEF0FF022EFBE
:101E36000FF0000E146E070E136E45EF0FF067508D
:101E4600661008E16504D8A02BEF0FF02DEF0FF018
:101E560033EF0FF0000E146E060E136E45EF0FF003
:101E6600000E146E050E136E45EF0FF045EF0FF0E2
:101E760045EF0FF045EF0FF0000E146E040E136ED3
:101E860045EF0FF00AC0F6FF0BC0F7FF0800F5504C
:101E96000D6E0E6A010E0A240F6E000E0B20106ED8
:101EA6000FC0F6FF10C0F7FF0800F5500D26000E14
:101EB6000E22090E0D24116E000E0E20126E0C0459
:101EC600D8A468EF0FF06AEF0FF08FEF0FF064C041
:101ED6000DF065C00EF066C00FF067C010F0190E69
:101EE6007AEF0FF0D89010320F320E320D32E82E04
:101EF60075EF0FF066500D2667500E2265500D26C1
:101F060066500E2211500D2612500E2264500D24DA
:101F1600116E65500E20126E11C00DF012C00EF03B
:101F26000D1E0E1E0D4A0E2AFF0E0D24116E000EFA
:101F36000E20126E7E0E1BEC19F014501BEC19F0DD
:101F460013501BEC19F0080E1BEC19F0010E1BECDC
:101F560019F00AC008F00BC009F0BFEC18F00C0429
:101F6600D8A4B8EF0FF0BAEF0FF0F1EF0FF0080EAC
:101F760013181410D8A4C2EF0FF0C4EF0FF0CFEF70
:101F86000FF067501BEC19F066501BEC19F065500A
:101F96001BEC19F0CFEF0FF0070E13181410D8A48E
:101FA600D7EF0FF0D9EF0FF0E1EF0FF066501BEC13
:101FB60019F065501BEC19F0E1EF0FF0060E13183F
:101FC6001410D8A4E9EF0FF0EBEF0FF0EEEF0FF0DF
:101FD60065501BEC19F064501BEC19F011501BEC0A
:101FE60019F012000F6E0F50D8B4FCEF0FF0FEEF91
:101FF6000FF020EF10F00ABE05EF10F003EF10F01F
:1020060020EF10F007C00BF008C00CF009C00DF06F
:102016000AC00EF00B1E0C1E0D1E0E1E0B2A000E05
:102026000C220D220E220BC011F00CC012F00DC0B6
:1020360013F00EC014F02AEF10F007C011F008C01C
:1020460012F009C013F00AC014F02AEF10F007507E
:10205600081009100A10D8A433EF10F035EF10F06D
:1020660041EF10F0000E076E000E086E000E096EAE
:10207600000E0A6EE2EF10F0E2EF10F0960E106E10
:102086004DEF10F0102AD89014321332123211325A
:102096004DEF10F0000E11140B6E000E12140C6EA4
:1020A600000E13140D6EFE0E14140E6E0B500C1053
:1020B6000D100E10D8A462EF10F064EF10F045EF8B
:1020C60010F074EF10F074EF10F0102A010E1126C4
:1020D600000E122213221422D89014321332123216
:1020E6001132000E11140B6E000E12140C6E000E3F
:1020F60013140D6EFF0E14140E6E0B500C100D10F3
:102106000E10D8A489EF10F08BEF10F068EF10F0E6
:1021160097EF10F097EF10F01006D89011361236A0
:102126001336143697EF10F013BE9CEF10F09EEFA7
:1021360010F0A8EF10F0020E1060A4EF10F0A6EF5A
:1021460010F08FEF10F0A8EF10F010B0ADEF10F018
:10215600AFEF10F0B2EF10F0139EB2EF10F0D89080
:10216600103210C00BF00C6A0D6A0E6A0BC00EF02E
:102176000D6A0C6A0B6A0B5011120C5012120D509C
:1021860013120E5014120F50D8B4CCEF10F0CEEF3D
:1021960010F0D8EF10F00ABED5EF10F0D3EF10F024
:1021A600D8EF10F0148ED8EF10F011C007F012C05F
:1021B60008F013C009F014C00AF0E2EF10F01200A4
:1021C60048C0D9FF49C0DAFFDECFF6FFDDCFF7FF03
:1021D6000800F550250AD8A4F3EF10F0F5EF10F03B
:1021E600A8EF11F048C0D9FF49C0DAFFDE2A000E79
:1021F600DD22000E6B6E000E6A6E6AC06EF06BC05A
:102206006FF06C686D6848C0D9FF49C0DAFFDECF51
:10221600F6FFDDCFF7FF0800F550640AD8B416EFD5
:1022260011F018EF11F02CEF11F048C0D9FF49C09A
:10223600DAFFDECFF6FFDDCFF7FF0800F550690ABB
:10224600D8A428EF11F02AEF11F06EEF11F02CEF61
:1022560011F048C0D9FF49C0DAFFDE2A000EDD22A0
:102266004AC0D9FF4BC0DAFFDFCF4CF0020EDE26A4
:10227600DFCF4DF0000EDD224CC0D9FF4DC0DAFF96
:10228600DECF4EF0DDCF4FF0000E4FBEFF0E506E8C
:10229600516E526E536E546E556E46C022F047C054
:1022A60023F04EC024F04FC025F050C026F051C098
:1022B60027F052C028F053C029F054C02AF055C068
:1022C6002BF070EC0DF022C046F023C047F0C7EFAC
:1022D60011F0C7EF11F048C0D9FF49C0DAFFDECFD1
:1022E600F6FFDDCFF7FF0800F550250AD8A47EEFEC
:1022F60011F080EF11F099EF11F048C0D9FF49C0F5
:10230600DAFFDE2A000EDD22000E086E250E076EAD
:1023160046C009F047C00AF0EEEC14F0000E476E16
:10232600010E466EC7EF11F0C7EF11F048C0D9FF96
:1023360049C0DAFFDE2A000EDD22000E476E000ECF
:10234600466EC7EF11F0C7EF11F048C0D9FF49C07C
:10235600DAFFDECFF6FFDDCFF7FF0800F550076E98
:10236600086A46C009F047C00AF0EEEC14F048C00F
:10237600D9FF49C0DAFFDE2A000EDD22000E476EC5
:10238600010E466EC7EF11F0120007C013F008C029
:1023960014F00B500C10D8A4D3EF11F0D5EF11F0B8
:1023A600D9EF11F0A6EF12F0A6EF12F013C0D9FF85
:1023B60014C0DAFF09C0DFFFFF0E0D6EFF0E0E6EB2
:1023C6000BC00FF00CC010F00D500F260E5010224F
:1023D6000F501324D96E10501420DA6E09C0DFFF97
:1023E6000C5007E1030E0B5CD8B0FCEF11F0FEEFCA
:1023F60011F002EF12F0A6EF12F0A6EF12F020EEA7
:1024060001F01350D9261450DA2209C0DFFF20EE5E
:1024160002F01350D9261450DA2209C0DFFFFE0E4F
:102426000D6EFF0E0E6E0BC00FF00CC010F00D50AF
:102436000F260E5010220F501324D96E1050142060
:10244600DA6E09C0DFFFFD0E0D6EFF0E0E6E0BC0BD
:102456000FF00CC010F00D500F260E5010220F502A
:102466001324D96E10501420DA6E09C0DFFF0C5009
:1024760007E1070E0B5CD8B043EF12F045EF12F000
:1024860049EF12F0A6EF12F0A6EF12F020EE03F0DD
:102496001350D9261450DA2209C0DFFFFC0E0D6E48
:1024A600FF0E0E6E0BC00FF00CC010F00D500F2675
:1024B6000E5010220F501324D96E10501420DA6ECD
:1024C60009C0DFFF0C5007E1090E0B5CD8B06EEFB8
:1024D60012F070EF12F074EF12F0A6EF12F0A6EF02
:1024E60012F013C00DF014C00EF00D1E0E1E0D4A94
:1024F6000E2A030E0D14116E126A11501326125075
:10250600142211500B5E12500C5AFC0E0B16FF0EC5
:102516000C169BEF12F013C0D9FF14C0DAFF09C0E6
:10252600DFFF0B06D8A00C06134A142A9BEF12F005
:102536000B500C10D8A4A2EF12F0A4EF12F08EEFFD
:1025460012F0A6EF12F01200000E186E16BEB0EFD3
:1025560012F0AEEF12F0C4EF12F0161E151E141E86
:10256600131E121E111E101E0F6C000E10221122B9
:1025760012221322142215221622010E186EC4EFFF
:1025860012F00EBECBEF12F0C9EF12F0DFEF12F031
:102596000E1E0D1E0C1E0B1E0A1E091E081E076CA3
:1025A600000E082209220A220B220C220D220E22DC
:1025B600010E181ADFEF12F020EE19F0070EDE6A90
:1025C600E806FDE20F50101011101210131014102F
:1025D60015101610D8B4F2EF12F0F4EF12F052EF15
:1025E60013F0010E176E04EF13F0D8900F36103665
:1025F600113612361336143615361636172A04EFE8
:1026060013F016AE09EF13F00BEF13F0F8EF12F01C
:102616000FEF13F00FEF13F0D89019361A361B365A
:102626001C361D361E361F3620360F50075C1050DE
:1026360008581150095812500A5813500B58145084
:102646000C5815500D5816500E58D8A02DEF13F0F3
:102656002FEF13F042EF13F00F50075E1050085A99
:102666001150095A12500A5A13500B5A14500C5A48
:1026760015500D5A16500E5A198042EF13F0D89085
:1026860016321532143213321232113210320F3220
:10269600172E0FEF13F052EF13F052EF13F01850FE
:1026A600D8B458EF13F05AEF13F06CEF13F0201E66
:1026B6001F1E1E1E1D1E1C1E1B1E1A1E196C000E22
:1026C6001A221B221C221D221E221F2220226CEFF0
:1026D60013F019C007F01AC008F01BC009F01CC09F
:1026E6000AF01DC00BF01EC00CF01FC00DF020C07C
:1026F6000EF07EEF13F01200000E186E0EBE88EF7D
:1027060013F086EF13F09CEF13F00E1E0D1E0C1E39
:102716000B1E0A1E091E081E076C000E082209223F
:102726000A220B220C220D220E22010E186E9CEF9D
:1027360013F016BEA3EF13F0A1EF13F0B5EF13F0ED
:10274600161E151E141E131E121E111E101E0F6CB1
:10275600000E1022112212221322142215221622F2
:10276600B5EF13F00F5010101110121013101410B3
:1027760015101610D8B4C2EF13F0C4EF13F018EF0B
:1027860014F0010E176ED4EF13F0D8900F361036F2
:10279600113612361336143615361636172AD4EF76
:1027A60013F016AED9EF13F0DBEF13F0C8EF13F00A
:1027B600DFEF13F0DFEF13F00F50075C10500858EF
:1027C6001150095812500A5813500B5814500C58EF
:1027D60015500D5816500E58D8A0F4EF13F0F6EF1A
:1027E60013F008EF14F00F50075E1050085A1150FE
:1027F600095A12500A5A13500B5A14500C5A1550B3
:102806000D5A16500E5A08EF14F0D890163215329B
:10281600143213321232113210320F32172EDFEF0A
:1028260013F018EF14F018EF14F01850D8B41EEF88
:1028360014F020EF14F032EF14F00E1E0D1E0C1ED5
:102846000B1E0A1E091E081E076C000E082209220E
:102856000A220B220C220D220E2232EF14F007C0A0
:1028660007F008C008F009C009F00AC00AF00BC05A
:102876000BF00CC00CF00DC00DF00EC00EF044EFC6
:1028860014F01200443445344B6E4B50D8A44EEF2E
:1028960014F050EF14F05CEF14F0000E426E000ED0
:1028A600436E000E446E000E456EEDEF14F0EDEF34
:1028B60014F042C046F043C047F044C048F045C05B
:1028C60049F0200E6CEF14F0D89049324832473266
:1028D6004632E82E67EF14F046504A6E448EFF0EDD
:1028E6004216FF0E4316FF0E4416000E4516960EB0
:1028F6004B5E4BBE83EF14F081EF14F0A7EF14F09C
:102906004B50800A970FD8B08BEF14F08DEF14F070
:102916009BEF14F0000E426E000E436E000E446EE6
:10292600000E456EEDEF14F0EDEF14F09BEF14F092
:10293600D89045324432433242324B3E9BEF14F03C
:10294600D1EF14F0D1EF14F01F0E4B64ADEF14F07D
:10295600AFEF14F0C5EF14F0000E426E000E436E9A
:10296600000E446E000E456EEDEF14F0EDEF14F020
:10297600C5EF14F0D89042364336443645364B06FA
:10298600C5EF14F04B50D8A4CBEF14F0CDEF14F0F4
:10299600BDEF14F0D1EF14F0D1EF14F04A50D8B4D3
:1029A600D7EF14F0D9EF14F0E3EF14F0451E441EF0
:1029B600431E426C000E432244224522E3EF14F0EC
:1029C60042C042F043C043F044C044F045C045F025
:1029D600EDEF14F0120009500A10D8B4F5EF14F018
:1029E600F7EF14F002EF15F009500A10D8A4FEEF25
:1029F60014F000EF15F007EF15F002EF15F0075091
:102A060046EC19F05CEF15F020EE04F00950D926DB
:102A16000A50DA22DE50DE10D8B414EF15F016EFA5
:102A260015F033EF15F020EE04F00950D9260A50C0
:102A3600DA2210EE02F00950E1260A50E222DE50B8
:102A4600E65CE650800A0F6EDE50800A0F58D8B05A
:102A56002FEF15F031EF15F05CEF15F033EF15F0B1
:102A660020EE02F00950D9260A50DA22DECF0BF00A
:102A7600DDCF0CF009C0D9FF0AC0DAFFDECF0DF0BA
:102A8600DDCF0EF00B500D24D96E0C500E20DA6EF1
:102A960007C0DFFF20EE02F00950D9260A50DA22DD
:102AA600DE2A000EDD225CEF15F05CEF15F05CEF20
:102AB60015F012006EA062EF15F064EF15F070EFDE
:102AC60015F019C010F01AC011F017C012F018C096
:102AD60013F032EC18F070EF15F01CBE75EF15F020
:102AE60077EF15F07DEF15F01BC020F01CC021F02C
:102AF60081EF15F0000E216E000E206E000E1F6E87
:102B0600000E1E6E95EF15F0000E086E200E076E75
:102B160017C009F018C00AF0EEEC14F01E4A1F2A7E
:102B260095EF15F020501E5C1F50800A1D6E215037
:102B3600800A1D58D8A0A2EF15F0A4EF15F087EF74
:102B460015F06EB0A9EF15F0ABEF15F0B7EF15F075
:102B560019C010F01AC011F017C012F018C013F007
:102B660032EC18F0B7EF15F019C007F01AC008F0EC
:102B760009EC18F020500724176E21500820186E13
:102B8600C5EF15F01200000E0B6E000E0A6E030E56
:102B9600096EE1EF15F00950010D000EF324D96E10
:102BA600010EF420DA6EDF50076E07500A240A6E13
:102BB600000E0B200B6E092AE1EF15F00950076E87
:102BC600086A7050075C71500858D8A0EDEF15F0F0
:102BD600EFEF15F0CEEF15F0F1EF15F00AC007F0A4
:102BE6000BC008F0071E081E074A082AFF0E072416
:102BF6000A6E000E08200B6E000E7024D96E010EB0
:102C06007120DA6E0A50DE18D8A40CEF16F00EEF1B
:102C160016F01EEF16F070507110D8B415EF16F0BE
:102C260017EF16F01EEF16F0010E23EF16F023EF46
:102C360016F023EF16F0000E23EF16F023EF16F032
:102C46001200949C948E000E326E000E336E800E2F
:102C5600346EBF0E356E4CC007F04DC008F04EC046
:102C660009F04FC00AF0010EF5EC0FF007C019F09D
:102C760008C01AF009C01BF00AC01CF0000E156E41
:102C8600240E166EF40E176E470E186EF5EC05F050
:102C960015C02EF016C02FF017C030F018C031F056
:102CA60033EC03F02EC042F02FC043F030C044F0A6
:102CB60031C045F045EC14F04250AF6E200EAC6EBC
:102CC600900EAB6E1200000E086EC80E076EDEEC9C
:102CD60016F0000E206E000E1F6E85EF16F0990E90
:102CE6001F5C3A0E2058D8A07BEF16F07DEF16F049
:102CF60081EF16F0A3EF16F0A3EF16F01F4A202A75
:102D060085EF16F0A4EC16F00009D8B48DEF16F096
:102D16008FEF16F072EF16F0F29EAEEC0BF0000E8F
:102D2600076E010E086E000E0A6E000E096E000E8A
:102D36000C6E640E0B6EC8EC11F0F28EA3EF16F05B
:102D46001200000E076E630E0764ACEF16F0AEEFCE
:102D560016F0B2EF16F0DAEF16F0DAEF16F00750CB
:102D6600010D000EF324D96E010EF420DA6EDF5049
:102D7600D8B4C0EF16F0C2EF16F0CFEF16F007503A
:102D8600D8B4C8EF16F0CAEF16F0CFEF16F0010E62
:102D9600DDEF16F0DDEF16F0072A630E0764D6EFB7
:102DA60016F0D8EF16F0B2EF16F0DAEF16F0000EC6
:102DB600DDEF16F01200000E0A6E000E096E0AEF25
:102DC60017F0000E0C6E000E0B6E0C5009E1A50EEE
:102DD6000B5CD8A0F1EF16F0F3EF16F0F7EF16F054
:102DE60006EF17F006EF17F00B4A0C2A0C5009E114
:102DF600A50E0B5CD8A002EF17F004EF17F0F7EF63
:102E060016F006EF17F0094A0A2A0AEF17F00950DA
:102E1600075C0A500858D8B013EF17F015EF17F0F3
:102E2600E4EF16F017EF17F0120030EF17F00EC0B0
:102E3600F6FF0FC0F7FFF86A050EF76403D0080027
:102E4600F55005D0F6CFE1FFF7CFE2FFE7502AECC9
:102E560019F00E4A0F2A30EF17F00EC0F6FF0FC01A
:102E6600F7FFF86A050EF76403D00800F55005D0A1
:102E7600F6CFE1FFF7CFE2FFE7500009D8A446EF0F
:102E860017F048EF17F01AEF17F04AEF17F0120095
:102E960058C05CF059C05DF0000E696E000E686E99
:102EA60069EF17F056C046F057C047F05C0E486E03
:102EB600000E496E5AC04AF05BC04BF0E3EC10F0CE
:102EC600465068264750692269EF17F05CC0F6FF46
:102ED6005DC0F7FF0800F5500009D8A475EF17F09C
:102EE60077EF17F055EF17F068C056F069C057F046
:102EF6001200620E0001C46F000EC56F5EC0C6F000
:102F06005FC0C7F0000EC96F000EC86F000ECB6F12
:102F1600000ECA6FC60E566E000E576E60C058F091
:102F260061C059F0C40E5A6E000E5B6E4BEC17F082
:102F360056C0C2F057C0C3F00001C8515E24D96E16
:102F4600C9515F20DA6E000EDF6EAAEF17F012008D
:102F5600010E086EF40E076EDEEC16F05B0E156EB3
:102F6600060E166E000E176E000E186E000E196E07
:102F7600000E1A6E0AEC19F0010E086EF40E076EBA
:102F8600DEEC16F05E0E156E060E166EFF0E176E52
:102F9600FF0E186E000E196E000E1A6E0AEC19F06E
:102FA600010E086EF40E076EDEEC16F01200136EBC
:102FB600000E146E1304D8A4E3EF17F0E5EF17F034
:102FC600EEEF17F010500F0B8009146E145038EC0A
:102FD60019F002EF18F0020E1318D8A4F5EF17F047
:102FE600F7EF17F002EF18F010500F0BC009146E30
:102FF600145038EC19F002EF18F002EF18F011C077
:103006000EF012C00FF018EC17F0120007C00BF00C
:1030160008C00CF013EF18F0074A082A13EF18F04F
:1030260007C0D9FF08C0DAFFDF50D8A41DEF18F09B
:103036001FEF18F00FEF18F021EF18F00BC009F092
:103046000CC00AF0091E0A1E094A0A2A075009245A
:10305600076E08500A20086E31EF18F01200000EB5
:10306600166E000E156E45EF18F014C007F0086ACC
:1030760012C009F013C00AF0EEEC14F0154A162A35
:1030860045EF18F015501024D96E16501120DA6E3F
:10309600DF50146E1450D8A453EF18F055EF18F003
:1030A60038EF18F057EF18F0120031C064F032C054
:1030B60065F033C066F034C067F025C00AF026C05C
:1030C6000BF027C00CF028C00DF029C00EF02AC066
:1030D6000FF02BC010F02CC011F02DC012F02EC036
:1030E60013F02FC014F030C015F0010E166E05EC6B
:1030F60008F012001ABE8AEF18F01A5006E11904F9
:10310600D8B088EF18F08AEF18F098EF18F019C0C9
:103116001BF01AC01CF01B1E1C1E1B4A1C2A1BC0BF
:1031260019F01CC01AF09EEF18F019C019F01AC059
:103136001AF09EEF18F01200000E956E000E926EB9
:10314600000E086E140E076EDEEC16F0380E38EC24
:1031560019F0010E38EC19F0000E086E020E076E1B
:10316600DEEC16F00C0E38EC19F0060E38EC19F001
:10317600800E38EC19F01200CDEF18F008C0F6FFFB
:1031860009C0F7FF0800F5501BEC19F0084A092A98
:10319600CDEF18F008C0F6FF09C0F7FF0800F5509C
:1031A6000009D8A4D9EF18F0DBEF18F0C1EF18F03A
:1031B600DDEF18F0120001EE00F0640EEE6AE8068C
:1031C600FDE100EE80F0420EEE6AE806FDE100EE5B
:1031D60064F0100EEE6AE806FDE174907492000E3B
:1031E600F86E0001E5EF09F0010E38EC19F0000E5B
:1031F600086E020E076EDEEC16F0800E38EC19F043
:10320600000E086E010E076EDEEC16F0120017C0F7
:1032160064F018C065F019C066F01AC067F015C0F2
:103226000AF016C00BF0010E0C6EFCEC0EF012004C
:10323600076E1EEF19F09EA823EF19F025EF19F07F
:103246001EEF19F027EF19F007C0ADFF12000D6E43
:103256000DC08CFF8980898200F08992000E086E6D
:10326600010E076EDEEC16F012000D6E0DC08CFF1F
:103276008990898200F08992000E086E010E076E11
:08328600DEEC16F0120012004C
:020000040020DA
:08000000FFFFFFFFFFFFFFFF00
:020000040030CA
:0E000000FF081F1EFF8181FF0FC00FE00F40A1
:00000001FF
